:020000040800F2
:1000000000A00020490200084D0200084F0200082D
:1000100051020008530200085502000800000000C9
:10002000000000000000000000000000570200086F
:1000300059020008000000005B0200085D02000891
:100040005F0200085F0200085F0200085F0200080C
:100050005F0200085F0200085F0200085F020008FC
:100060005F0200085F0200085F0200085F020008EC
:100070005F0200085F0200085F0200085F020008DC
:100080005F0200085F0200085F0200085F020008CC
:100090005F0200085F0200085F0200085F020008BC
:1000A0005F0200085F0200085F0200085F020008AC
:1000B0005F0200085F0200085F0200085F0200089C
:1000C0005F0200085F0200085F0200085F0200088C
:1000D0005F0200085F0200085F0200085F0200087C
:1000E0005F0200085F0200085F0200085F0200086C
:1000F0005F0200085F0200085F0200085F0200085C
:100100000000000000000000000000005F02000886
:100110005F0200085F0200085F0200085F0200083B
:100120005F0200085F0200085F0200085F0200082B
:100130005F0200085F0200080000000000000000ED
:100140005F0200085F0200085F0200080000000074
:10015000000000000000000000000000000000009F
:1001600000000000000000005F0200085F020008BD
:100170005F02000800000000000000000000000016
:10018000000000005F02000807B5244A244B9A4291
:100190004FF0000302D242F8043BF7E7214A22491C
:1001A0009818884204D22149595899500433F5E7E8
:1001B00000F062F8684601A900F056F81C4D1D4B8E
:1001C000ED1AAD1000241E46AC4204DA56F8242085
:1001D00090470134F8E7184B184DED1AAD10002484
:1001E0001E46AC4204DA56F8242090470134F8E762
:1001F000134D144C9DE8030000F0C8F8641BA410D4
:10020000064605EB8405002C04DD55F8043D013C51
:100210009847F8E7304600F023F800BF08000020B8
:100220000C000020000000200800002090030008BF
:100230006002000860020008600200086002000816
:100240006002000860020008FFF79EBFFEE7FEE7BD
:10025000FEE7FEE7FEE7FEE7FEE7FEE7FEE7FEE776
:1002600008B500F00BF8000001230360014B0B60A0
:10027000704700BF0000002000F010B8BFF34F8FA0
:10028000044A054BD16801F4E0610B43D360BFF32E
:100290004F8FFEE700ED00E00400FA05364B1A68C8
:1002A00042F001021A605968344A0A405A601A68DA
:1002B00022F0847222F480321A601A6822F48022BA
:1002C0001A605A6822F4FE025A60DA6A22F00F02BB
:1002D000DA62196B2A4A82B00A401A6300229A60D5
:1002E000009201921A6842F480321A601A6802F48D
:1002F00000320192009A01320092019A1AB9009AD2
:10030000B2F5A06FF2D11A6812F4003218BF0122C0
:100310000192019A012A05D01A4B4FF000629A60AF
:1003200002B07047184A122111605A685A605A6820
:100330005A605A6842F480625A605A6822F47C1209
:100340005A605A6842F4E8125A601A6842F08072A1
:100350001A601968084A8901FBD5516821F0030128
:100360005160516841F0020151605A6802F00C027C
:10037000082AFAD1D0E700BF001002400CC07FF875
:0E038000CCFC00FF00ED00E000200240FEE794
:0803900008000020000000003D
:040000050800018965
:00000001FF
