:020000040800F2
:1000000000A00020950200089D020008A10200083F
:10001000A5020008A9020008AD02000800000000C7
:10002000000000000000000000000000B102000815
:10003000B502000800000000B9020008BD02000877
:10004000C1020008C1020008C1020008C102000884
:10005000C1020008C1020008C1020008C102000874
:10006000C1020008C1020008C1020008C102000864
:10007000C1020008C1020008C1020008C102000854
:10008000C1020008C1020008C1020008C102000844
:10009000C1020008C1020008C1020008C102000834
:1000A000C1020008C1020008C1020008C102000824
:1000B000C1020008C1020008C1020008C102000814
:1000C000C1020008C1020008C1020008C102000804
:1000D000C1020008C1020008C1020008C1020008F4
:1000E000C1020008C1020008C1020008C1020008E4
:1000F000C1020008C1020008C1020008C1020008D4
:10010000000000000000000000000000C102000824
:10011000C1020008C1020008C1020008C1020008B3
:10012000C1020008C1020008C1020008C1020008A3
:10013000C1020008C1020008000000000000000029
:10014000C1020008C1020008C1020008000000004E
:10015000000000000000000000000000000000009F
:100160000000000000000000C1020008C1020008F9
:10017000C1020008000000000000000000000000B4
:1001800000000000C102000800B583B0304B314AC6
:100190001360314A1360314B3149002201E01A608B
:1001A00004338B42FBD32B4B1B6813B92A4B1B68C0
:1001B00003B1FEE7264B2B4A13602B4A13602B4BEF
:1001C0002B4A2C4803E0116819600433043283423F
:1001D000F9D3244B1A68284B9A4204D1224B1A684F
:1001E0001B689A4200D0FEE700F076F801A8694645
:1001F00000F06AF8214B224EF61AB61000241D4674
:1002000003E055F8243098470134A642F9DC1D4B31
:100210001D4EF61AB61000241D4603E055F8243092
:1002200098470134A642F9DC0198009900F0E2F801
:100230000546164B164CE41AA4101E4603E0013C7A
:1002400056F824309847002CF9DC284600F03AF89C
:10025000BABADECA100000201800002010000020EA
:100260001C000020000000200C00002000000020E6
:10027000F80300081000002078563412C402000869
:10028000C4020008C4020008C4020008C402000836
:10029000C402000808B5FFF777FF00BFFEE700BF04
:1002A000FEE700BFFEE700BFFEE700BFFEE700BFBE
:1002B000FEE700BFFEE700BFFEE700BFFEE700BFAE
:0402C000FEE700BF96
:1002C400FEE700BF01230360014B0B60704700BFD2
:1002D4000400002008B500F059F808BD82B00023DE
:1002E4000193009303F1804303F504331A6842F445
:1002F40080321A601A46136803F400330093019B9A
:1003040001330193009B1BB9019BB3F5A06FF2D19C
:100314001C4B1B6813F4003F14BF012300230093FC
:10032400009B012B2CD11222174B1A60A3F580538A
:100334005A685A605A685A605A6842F480625A602D
:100344005A6822F47C125A605A6842F4E8125A60DD
:100354001A6842F080721A601A46136813F0007F1C
:10036400FBD0084B5A6822F003025A605A6842F0E4
:1003740002025A601A46536803F00C03082BFAD1A0
:1003840002B07047001002400020024008B5144B30
:100394001A6842F001021A605968124A0A405A6007
:1003A4001A6822F0847222F480321A601A6822F4E5
:1003B40080221A605A6822F4FE025A60DA6A22F035
:1003C4000F02DA62196B084A0A401A6300229A6023
:1003D400FFF784FF4FF00062044B9A6008BD00BF32
:1003E400001002400CC07FF8CCFC00FF00ED00E0E0
:0403F400FEE700BF61
:1003F8007856341214000020000000003254769819
:040000050800018965
:00000001FF
