:020000040800F2
:1000000000A00020490200084D0200084F0200082D
:1000100051020008530200085502000800000000C9
:10002000000000000000000000000000570200086F
:1000300059020008000000005B020008710500087A
:100040005F0200085F0200085F0200085F0200080C
:100050005F0200085F0200085F0200085F020008FC
:100060005F0200085F0200085F0200085F020008EC
:100070005F0200085F0200085F0200085F020008DC
:100080005F0200085F0200085F0200085F020008CC
:100090005F0200085F0200085F0200085F020008BC
:1000A0005F0200085F0200085F0200085F020008AC
:1000B0005F0200085F0200085F0200085F0200089C
:1000C0005F0200085F0200085F0200085F0200088C
:1000D0005F0200085F0200085F0200085F0200087C
:1000E0005F0200085F0200085F0200085F0200086C
:1000F0005F0200085F0200085F0200085F0200085C
:100100000000000000000000000000005F02000886
:100110005F0200085F0200085F0200085F0200083B
:100120005F0200085F0200085F0200085F0200082B
:100130005F0200085F0200080000000000000000ED
:100140005F0200085F0200085F0200080000000074
:10015000000000000000000000000000000000009F
:1001600000000000000000005F0200085F020008BD
:100170005F02000800000000000000000000000016
:10018000000000005F02000807B5244A244B9A4291
:100190004FF0000302D242F8043BF7E7214A22491C
:1001A0009818884204D22149595899500433F5E7E8
:1001B00000F003F9684601A900F0C8F81C4D1D4B7A
:1001C000ED1AAD1000241E46AC4204DA56F8242085
:1001D00090470134F8E7184B184DED1AAD10002484
:1001E0001E46AC4204DA56F8242090470134F8E762
:1001F000134D144C9DE8030000F0BCF9641BA410DF
:10020000064605EB8405002C04DD55F8043D013C51
:100210009847F8E7304600F075F800BF70000020FE
:10022000880000200000002070000020A80F0008B7
:100230006002000860020008600200086002000816
:100240006002000860020008FFF79EBFFEE7FEE7BD
:10025000FEE7FEE7FEE7FEE7FEE7FEE7FEE7FEE776
:10026000F0B500230E681A460125954005EA0604FC
:10027000AC4230D10D796F1E012F1AD887684FF02C
:10028000030C0CFA03FC27EA0C07876091F805C001
:1002900087680CFA03FC4CEA070787608788BFB2BF
:1002A00027EA040484808C79878894403C43A4B274
:1002B0008480032407689C40E44327400760076864
:1002C0009D403D430560C5682C40C460CC79C5683D
:1002D0009C402C43C4600132102A03F10203C3D1B5
:1002E000F0BD81617047018570470000044B5A6979
:1002F00009B1104301E022EA00005861704700BFD5
:100300000010024008B500F05BF8000008B50C4B87
:100310001A680AB90B4A1A601B680B4A033020F0AE
:1003200003001844904206D900F04EF90C230360F4
:100330004FF0FF3008BD024A1060184608BD00BFEC
:100340007000002088000020009C00200123036032
:10035000014B0B60704700BF0000002008B500F0A3
:1003600033F9582303604FF0FF3008BD08B500F0A3
:100370002BF9582303604FF0FF3008BD08B500F09B
:1003800023F958230360002008BD08B500F01CF9CC
:10039000582303604FF0FF3008BD08B500F014F992
:1003A000582303604FF0FF3008BD08B500F00CF98A
:1003B000582303604FF0FF3008BD00F011B8000073
:1003C000BFF34F8F044A054BD16801F4E0610B4342
:1003D000D360BFF34F8FFEE700ED00E00400FA05A5
:1003E000364B1A6842F001021A605968344A0A40D2
:1003F0005A601A6822F0847222F480321A601A68F5
:1004000022F480221A605A6822F4FE025A60DA6AE4
:1004100022F00F02DA62196B2A4A82B00A401A638C
:1004200000229A60009201921A6842F480321A60A7
:100430001A6802F400320192009A01320092019A85
:100440001AB9009AB2F5A06FF2D11A6812F400320C
:1004500018BF01220192019A012A05D01A4B4FF0D0
:1004600000629A6002B07047184A122111605A68FF
:100470005A605A685A605A6842F480625A605A68F0
:1004800022F47C125A605A6842F4E8125A601A68E0
:1004900042F080721A601968084A8901FBD55168D8
:1004A00021F003015160516841F0020151605A6826
:1004B00002F00C02082AFAD1D0E700BF0010024077
:1004C0000CC07FF8CCFC00FF00ED00E000200240F3
:1004D00037B50F4D4FF400100121FFF707FF01233F
:1004E00003224FF400448DF8043028460023694667
:1004F0008DF806308DF805208DF807300094FFF751
:10050000AFFE28462146FFF7EEFE03B030BD00BF28
:10051000001000480A4B1A684FF47A73B2FBF3F2EA
:10052000013AB2F1807F09D2064B5A60064AF021A7
:1005300082F8231000229A6007221A60704700BFD9
:100540000800002010E000E000ED00E0024B186021
:100550001A68002AFCD1704784000020034B1A68F7
:1005600012B11A68013A1A60704700BF8400002077
:10057000FFF7F4BF08B5104800F0EAF80F4B104839
:100580001B68D96800F07AF8FFF7C4FFFFF7A0FFF7
:100590004FF400410B48FFF7A4FE40F29A20FFF70A
:1005A000D5FF08484FF40041FFF79DFE4FF4A770B8
:1005B000FFF7CCFFECE700BF100F00086C00002035
:1005C000290F000800100048014B1868704700BF51
:1005D0006C00002070B50E461446054618B18369BC
:1005E0000BB900F081FA224B9C4201D16C6808E003
:1005F000204B9C4201D1AC6803E01F4B9C4208BFDA
:10060000EC68A3891A0701D523699BB928462146BE
:1006100000F0FAF870B14FF0FF3070BDA368013BF5
:10062000002BA3600BDB236816F8012C1A702368DB
:100630000133236016F8010B0028EFD117E0A269FF
:10064000934209DB236816F8012C1A702368197885
:100650000A29EDD1284602E016F8011C2846224658
:1006600000F07EF8B0F1FF3358425841D2E770BD38
:10067000480F0008680F0008880F00080A46034961
:10068000034608681946FFF7A5BF00BF6C000020AD
:1006900070B50E46054618B183690BB900F024FA0F
:1006A000AC68A389190701D5236983B92846214677
:1006B00000F0AAF858B14FF0FF3070BD002B0EDBF0
:1006C000236816F8012C1A70236801332360A3688D
:1006D00016F8012B013BA360002AEFD117E0A269B5
:1006E000934209DB236816F8012C1A7023681978E5
:1006F0000A29EAD1284602E016F8011C28462246BB
:1007000000F02EF8B0F1FF3250425041D2E7002BFA
:1007100016DAA269934208DB23680A221A7023685A
:100720001978914210D1284601E028460A21224634
:1007300000F016F8B0F1FF335842584130B1BAE733
:1007400023680A221A702368013323600A2070BDCF
:10075000024B01461868FFF79BBF00BF6C000020EA
:1007600070B50E461446054618B183690BB900F002
:10077000BBF9224B9C4201D16C6808E0204B9C42A3
:1007800001D1AC6803E01F4B9C4208BFEC68A36931
:10079000A360A3891A0709D523693BB1236920689F
:1007A000C01A63699842F6B20FDB08E0284621467A
:1007B00000F02AF80028F1D04FF0FF3070BD284635
:1007C000214600F013F90028F6D1A368013BA3608D
:1007D00023685A1C22601E7063690130984204D05D
:1007E000A389DB0707D50A2E05D12846214600F04C
:1007F000FDF80028E0D1304670BD00BF480F00086A
:10080000680F0008880F0008324B70B51D68064657
:100810000C4625B1AB6913B9284600F065F92E4B9B
:100820009C4201D16C6808E02C4B9C4201D1AC6821
:1008300003E02B4B9C4208BFEC68A28993B21907D6
:1008400020D4DD0605D4092342F040023360A281A2
:100850003BE0580712D5616B41B104F14403994262
:1008600002D0304600F000FA00236363A38923F02E
:100870002403A3810023636023692360A38943F0D9
:100880000803A38123694BB9A38903F42073B3F54B
:10089000007F03D03046214600F090F9A38913F081
:1008A000010205D00022A26062695242A26103E007
:1008B000990758BF6269A26022694AB903F08000B3
:1008C00080B230B143F04003A3814FF0FF3070BDE0
:1008D000002070BD6C000020480F0008680F000861
:1008E000880F00088A892DE9F041054610070C465B
:1008F00057D44B68002B02DC0B6C002B18DDE66A2A
:10090000B6B102F48052002392B22F682B600AB174
:10091000626D10E0216A28460123B047411C02465F
:1009200009D12B683BB11D2B01D0162B46D12F606E
:100930000020BDE8F081A3895B0705D56368D21A62
:10094000636B0BB1236CD21AE66A216A2846002336
:10095000B047461CA28905D12B681BB11D2B01D0C5
:10096000162B19D100236360D1042369236004D5B9
:10097000421C01D12B6803B96065616B2F600029AF
:10098000D6D004F14403994202D0284600F06CF915
:1009900000206063BDE8F08142F04002A281BDE822
:1009A000F0810E69002EC3D00B680E60C6EB030801
:1009B00093070CBF4B6900238B6012E0A38943F0BF
:1009C0004003A3814FF0FF30BDE8F081A76A216AA0
:1009D000284632464346B8470028EFDD0644C0EBC0
:1009E0000808B8F1000FF1DCA2E7000038B50B6988
:1009F00005460C46DBB118B183690BB900F074F8F9
:100A00000C4B9C4201D16C6808E00B4B9C4201D11D
:100A1000AC6803E0094B9C4208BFEC68B4F90C30A9
:100A20002BB128462146BDE83840FFF75BBF0020C8
:100A300038BD00BF480F0008680F0008880F000885
:100A4000F8B5074600F1480494B1A5686668013E10
:100A50000CD4AB89012B07D9B5F90E30013303D083
:100A600038462946FFF7C2FF6835F0E72468EBE710
:100A7000F8BD0000002310B50446036043608360A6
:100A800081814366C28103614361836119465C30A1
:100A9000082200F0E1F8054B6362054BA362054BA9
:100AA000E362054B2462236310BD00BFB90D00084B
:100AB000DB0D0008130E0008370E000870B54B1E42
:100AC00068255D430E4605F1740100F011F90446F6
:100AD00040B1002180E842000C30A06005F16802BE
:100AE00000F0BAF8204670BD836910B5044633BBE8
:100AF0008364C3640365124B124A1B688262984286
:100B000004BF0123836100F01FF86060204600F0FD
:100B10001BF8A060204600F017F80421E0600022D6
:100B20006068FFF7A7FFA06809210122FFF7A2FF75
:100B3000E06812210222FFF79DFF0123A36110BD8F
:100B4000440F0008410A0008F8B51B4B1E68B36942
:100B5000074613B93046FFF7C7FF4836B4687368D5
:100B6000013B04D4B4F90C5075B16834F8E733682C
:100B70002BB938460421FFF7A1FF306008B1366871
:100B8000ECE70C233B60F8BD4FF6FF73E3810123D4
:100B9000A38165662560A560656025616561A561C5
:100BA00004F15C002946082200F056F86563A5634D
:100BB000A564E5642046F8BD440F0008F0B58B89B4
:100BC0009E0791B005460C4626D4B1F90E100029B7
:100BD00009DAA38913F0800F4FF0000714BF4026F5
:100BE0004FF480660DE001AA00F04CF90028F0DB1C
:100BF000029F07F47047B7F500514F424F414FF441
:100C000080662846314600F073F860B9A3899A05DA
:100C10001DD443F00203A38104F147032360236141
:100C20000123636113E00B4BAB62A389206043F0A7
:100C30008003A381206166614FB12846B4F90E108C
:100C400000F032F918B1A38943F00103A38111B078
:100C5000F0BD00BF410A000802440346934202D09F
:100C600003F8011BFAE7704730B500293CD051F872
:100C7000042C0B1F1D49002AB8BF9B180A680C469C
:100C800012B95A600B6030BD93420DD219685818E2
:100C9000904203D15A581144426819605A60236047
:100CA00030BD994203D80A4651680029F9D1146829
:100CB00015199D420AD11B682344D018884213603D
:100CC00012D10868034413604B680CE002D90C236E
:100CD000036030BD18681C188C4203D10C68496849
:100CE000204418605960536030BD00BF7C00002074
:100CF00070B5CD1C25F0030508350C2D38BF0C252B
:100D0000002D06463FDB8D423DD3214B1C68184623
:100D10002146A1B10B685B1B0ED40B2B03D90B60D2
:100D2000CC18CD501FE08C4202D1626802601AE0FC
:100D30004B6863600C4616E00C464968E9E7154CC1
:100D400023681BB9304600F027F82060294630465A
:100D500000F022F8431C014615D0C41C24F0030403
:100D600084420AD1256004F10B00231D20F0070006
:100D7000C31A0BD05A42E25070BD3046611A00F0DF
:100D80000BF80130EED10C233360002070BD00BFA2
:100D90007C0000207800002038B5064C0023054672
:100DA00008462360FFF7B2FA431C02D1236803B15F
:100DB0002B6038BD8000002010B50C46B1F90E1034
:100DC00000F094F8002803DB636D0344636510BDF5
:100DD000A38923F48053A38110BD2DE9F0411D4662
:100DE0008B89DB0507460C46164605D5B1F90E1072
:100DF0000022022300F068F8A389B4F90E1023F44E
:100E00008053A381384632462B46BDE8F04100F0BE
:100E100017B810B50C46B1F90E1000F055F8431C88
:100E2000A38903D123F48053A38110BD43F48053DD
:100E3000A381606510BDB1F90E1000F013B8000079
:100E400038B5074C054600202060084611461A4672
:100E5000FFF7ABFA431C02D1236803B12B6038BD06
:100E60008000002038B5064C002305460846236064
:100E7000FFF774FA431C02D1236803B12B6038BD1D
:100E80008000002038B5074C00230546084611466F
:100E90002360FFF76BFA431C02D1236803B12B6078
:100EA00038BD00BF8000002038B5064C0023054641
:100EB00008462360FFF762FA431C02D1236803B19E
:100EC0002B6038BD8000002038B5074C0546002057
:100ED0002060084611461A46FFF757FA431C02D114
:100EE000236803B12B6038BD8000002038B5074C63
:100EF000054600202060084611461A46FFF74DFAC5
:100F0000431C02D1236803B12B6038BD8000002050
:100F10005374616E64617264206F757470757420AF
:100F20006D6573736167652E005374616E646172E1
:100F300064206572726F72206D6573736167652ED0
:100F40000A0043000C000020000000000000000028
:100F50000000000000000000000000000000000091
:100F60000000000000000000000000000000000081
:100F70000000000000000000000000000000000071
:100F80000000000000000000000000000000000061
:100F90000000000000000000000000000000000051
:080FA000000000000000000049
:100FA800740000200000000000A24A0400000000B5
:100FB800480F0008680F0008880F000800000000AC
:100FC800000000000000000000000000420F0008C0
:100FD8000000000000000000000000000000000009
:100FE80000000000000000000000000000000000F9
:100FF80000000000000000000000000000000000E9
:101008000000000000000000000000000C000020AC
:040000050800018965
:00000001FF
