:020000040800F2
:1000000000A00020950200089D020008A10200083F
:10001000A5020008A9020008AD02000800000000C7
:10002000000000000000000000000000B102000815
:10003000B502000800000000B902000831080008FD
:10004000C1020008C1020008C1020008C102000884
:10005000C1020008C1020008C1020008C102000874
:10006000C1020008C1020008C1020008C102000864
:10007000C1020008C1020008C1020008C102000854
:10008000C1020008C1020008C1020008C102000844
:10009000C1020008C1020008C1020008C102000834
:1000A000C1020008C1020008C1020008C102000824
:1000B000C1020008C1020008C1020008C102000814
:1000C000C1020008C1020008C1020008C102000804
:1000D000C1020008C1020008C1020008C1020008F4
:1000E000C1020008C1020008C1020008C1020008E4
:1000F000C1020008C1020008C1020008C1020008D4
:10010000000000000000000000000000C102000824
:10011000C1020008C1020008C1020008C1020008B3
:10012000C1020008C1020008C1020008C1020008A3
:10013000C1020008C1020008000000000000000029
:10014000C1020008C1020008C1020008000000004E
:10015000000000000000000000000000000000009F
:100160000000000000000000C1020008C1020008F9
:10017000C1020008000000000000000000000000B4
:1001800000000000C102000800B583B0304B314AC6
:100190001360314A1360314B3149002201E01A608B
:1001A00004338B42FBD32B4B1B6813B92A4B1B68C0
:1001B00003B1FEE7264B2B4A13602B4A13602B4BEF
:1001C0002B4A2C4803E0116819600433043283423F
:1001D000F9D3244B1A68284B9A4204D1224B1A684F
:1001E0001B689A4200D0FEE700F040FA01A8694679
:1001F00000F0A4F9214B224EF61AB61000241D4639
:1002000003E055F8243098470134A642F9DC1D4B31
:100210001D4EF61AB61000241D4603E055F8243092
:1002200098470134A642F9DC0198009900F004FBDC
:100230000546164B164CE41AA4101E4603E0013C7A
:1002400056F824309847002CF9DC284600F048F98D
:10025000BABADECA7800002014010020780000201D
:100260001801002000000020740000200000002081
:10027000241B00087800002078563412C4020008BD
:10028000C4020008C4020008C4020008C402000836
:10029000C402000808B5FFF777FF00BFFEE700BF04
:1002A000FEE700BFFEE700BFFEE700BFFEE700BFBE
:1002B000FEE700BFFEE700BFFEE700BFFEE700BFAE
:0402C000FEE700BF96
:1002C4002DE9F84305460E46B0F1904F16D0444B45
:1002D400984213D003F5806398420FD003F58063EE
:1002E40098420BD003F58063984207D003F58063EE
:1002F400984203D03B48B92100F05EF933681BB93A
:100304003848BA2100F058F93379032B03D935481A
:10031400BB2100F051F9F379022B03D93148BC21F8
:1003240000F04AF9002401274FF00308DFF8B490E5
:1003340051E007FA04F332681A409A424AD13379F9
:10034400013BDBB2012B2BD87379013BDBB2022BCF
:1003540003D94846CC2100F02FF9AA68630008FAB3
:1003640003F122EA0102AA60AA68717901FA03F38F
:100374001343AB60B379012B03D94846D32100F072
:100384001BF9AA8892B2A3B207FA03F122EA010286
:10039400AA80AA88B17901FA03F313439BB2AB8014
:1003A4002A68630008FA03F122EA01022A60296834
:1003B40032799A400A432A60E968A2B2520008FAE4
:1003C40002F221EA0202EA60EA68F17901FA03F32F
:1003D4001343EB6001340F2CABD9BDE8F88300BFA5
:1003E400000400480819000838B504460D46B0F169
:1003F400904F17D00F4B984214D003F58063984266
:1004040010D003F5806398420CD003F580639842C2
:1004140008D003F58063984204D007484FF4C471B0
:1004240000F0CAF825B9044840F2891100F0C4F874
:10043400A56138BD000400480819000838B5044611
:100444000D46B0F1904F17D00F4B984214D003F5DE
:100454008063984210D003F5806398420CD003F572
:100464008063984208D003F58063984204D007481B
:100474004FF4CD7100F0A0F825B9044840F29B1167
:1004840000F09AF8258538BD0004004808190008D2
:1004940038B504460D460E4B034003B920B90D4848
:1004A40040F25C5100F088F8012D04D9094840F26B
:1004B4005D5100F081F825B1074B5A6914435C6122
:1004C40038BD054B5A6922EA04045C6138BD00BF9B
:1004D400A8FF81CE3C19000800100240FEE700BFCF
:1004E40008B5034800F08EF80120FFF7F7FF00BFBE
:1004F4006C19000808B50D4B1B6813B90C4A0B4B5B
:100504001A600A4B1B68033020F003001844094AA0
:10051400904206D900F0D2F90C2303604FF0FF306B
:1005240008BD024A1060184608BD00BF7C000020C8
:1005340018010020009C002001230360014B0B6084
:10054400704700BF0400002008B500F0B7F9582335
:1005540003604FF0FF3008BD08B500F0AFF9582331
:1005640003604FF0FF3008BD08B500F0A7F9582329
:100574000360002008BD00BF08B500F09FF95823B0
:1005840003604FF0FF3008BD08B500F097F9582319
:1005940003604FF0FF3008BD08B50138012804D8C6
:1005A4000846114600F05CF808BD00F087F95823AE
:1005B40003604FF0FF3008BD08B503460A46034800
:1005C400194600F005F8FFF78BFF00BFC0190008BB
:1005D4000FB400B583B004AB53F8042B019308485F
:1005E400802100F073FA011E03DD054800F038F89D
:1005F4000146084603B05DF804EB04B0704700BF41
:100604008400002010B5044600F02EFA014620466E
:1006140000F026F80248012100F022F810BD00BFC6
:10062400EC19000810B400244FF0604212E0D2F834
:10063400803E13F0010F04D0D2F8003E13F0010FF6
:1006440001D1204609E01368002BFCD00378137015
:10065400013401308C42EAD308465DF8044B7047FC
:1006640008B5FFF7DFFF08BD08B500F059F808BD6D
:1006740082B000230193009303F1804303F5043314
:100684001A6842F480321A601A46136803F400337D
:100694000093019B01330193009B1BB9019BB3F5AC
:1006A400A06FF2D11C4B1B6813F4003F14BF01234D
:1006B40000230093009B012B2CD11222174B1A60AC
:1006C400A3F580535A685A605A685A605A6842F4CB
:1006D40080625A605A6822F47C125A605A6842F462
:1006E400E8125A601A6842F080721A601A46136857
:1006F40013F0007FFBD0084B5A6822F003025A60C3
:100704005A6842F002025A601A46536803F00C0316
:10071400082BFAD102B070470010024000200240BA
:1007240008B5144B1A6842F001021A605968124A5B
:100734000A405A601A6822F0847222F480321A60E5
:100744001A6822F480221A605A6822F4FE025A605F
:10075400DA6A22F00F02DA62196B084A0A401A6355
:1007640000229A60FFF784FF4FF00062044B9A6006
:1007740008BD00BF001002400CC07FF8CCFC00FF95
:1007840000ED00E030B583B04FF400100121FFF715
:100794007FFE4FF40044009401238DF804300023BD
:1007A4008DF8063003228DF805208DF80730054DAD
:1007B40028466946FFF784FD28462146FFF73EFE9A
:1007C40003B030BD001000480A4B1A680A4BA3FB63
:1007D40002139B09013BB3F1807F09D2074A53609E
:1007E400F021074B83F82310002393600723136041
:1007F400704700BF0C000020D34D621010E000E0F1
:1008040000ED00E0034B18601A461368002BFCD17E
:10081400704700BF10010020034B1B681BB1024B43
:100824001A68013A1A6070471001002008B5FFF7F2
:10083400F3FF08BDF8B51948FFF7E4FE184800F0C7
:100844000BF9184B1B68184801211822DB6800F0CB
:1008540093F81648164B1968FFF7BAFEFFF7B4FF72
:10086400FFF790FF0024134E4FF40045124F30461B
:100874002946FFF7B9FD40F29A20FFF7C3FF30463F
:100884002946FFF7DBFD40F60C50FFF7BBFF0134B0
:1008940038462146FFF79CFEE9E700BF1C1A000812
:1008A400301A0008700000204C1A0008681A00086A
:1008B4000C000020001000487C1A0008014B186846
:1008C400704700BF700000202DE9F047089C8A465D
:1008D400904602FB03F9054618B183690BB900F091
:1008E400C9FA224B9C4201D16C6808E0204B9C421F
:1008F40001D1AC6803E01F4B9C4208BFEC68A3899C
:100904001A0703D523690BB100261BE028462146AC
:1009140000F040F90028F7D0002623E0A768013F43
:10092400A760002F1AF8061016DAA3699F420CDAA2
:100934002846224600F0DAF8B0F1FF335842584115
:1009440080B901364E45E9D10CE02368197023685B
:1009540019780A2903D1EBE7236819702368013356
:100964002360EEE7B6FBF8F0BDE8F087901A0008C4
:10097400B01A0008D01A000873B50093054B064658
:100984000D461446186831462A462346FFF79CFF55
:1009940002B070BD7000002070B50E46054618B157
:1009A40083690BB900F066FAAC68A389190701D50D
:1009B400236983B92846214600F0ECF858B14FF07A
:1009C400FF3070BD002B0EDB236816F8012C1A7063
:1009D400236801332360A36816F8012B013BA3604D
:1009E400002AEFD117E0A269934209DB236816F8C5
:1009F400012C1A70236819780A29EAD1284602E0E2
:100A040016F8011C2846224600F070F8B0F1FF32B7
:100A140050425041D2E7002B16DAA269934208DB18
:100A240023680A221A7023681978914210D1284643
:100A340001E028460A21224600F058F8B0F1FF33BD
:100A44005842584130B1BAE723680A221A70236821
:100A5400013323600A2070BD024B01461868FFF77A
:100A64009BBF00BF70000020034613F8012B002A2F
:100A7400FBD1181A0138704730B5141E9BB00546D7
:100A840004DA8B2303604FF0FF301CE04FF4027252
:100A940000910491ADF80C2014BF04F1FF312146FC
:100AA4004FF6FF7202910591ADF80E2069461A4681
:100AB4001E9B00F0E7FB431CBCBF8B232B6014B1CF
:100AC400009B00221A701BB030BD000073B5009368
:100AD400054B06460D461446186831462A462346F9
:100AE400FFF7CAFF02B070BD7000002070B50E465B
:100AF4001446054618B183690BB900F0BBF9224BC3
:100B04009C4201D16C6808E0204B9C4201D1AC6846
:100B140003E01F4B9C4208BFEC68A369A360A38950
:100B24001A0709D523693BB123692068C01A636990
:100B34009842F6B20FDB08E02846214600F02AF876
:100B44000028F1D04FF0FF3070BD2846214600F058
:100B540013F90028F6D1A368013BA36023685A1C4B
:100B640022601E7063690130984204D0A389DB07B8
:100B740007D50A2E05D12846214600F0FDF80028A5
:100B8400E0D1304670BD00BF901A0008B01A0008CA
:100B9400D01A0008324B70B51D6806460C4625B1C4
:100BA400AB6913B9284600F065F92E4B9C4201D17C
:100BB4006C6808E02C4B9C4201D1AC6803E02B4BE1
:100BC4009C4208BFEC68A28993B2190720D4DD06C1
:100BD40005D4092342F040023360A2813BE0580768
:100BE40012D5616B41B104F14403994202D03046FD
:100BF40000F000FA00236363A38923F02403A38194
:100C04000023636023692360A38943F00803A3815D
:100C140023694BB9A38903F42073B3F5007F03D090
:100C24003046214600F090F9A38913F0010205D063
:100C34000022A26062695242A26103E0990758BF90
:100C44006269A26022694AB903F0800080B230B1BF
:100C540043F04003A3814FF0FF3070BD002070BD0E
:100C640070000020901A0008B01A0008D01A00087A
:100C74008A892DE9F041054610070C4657D44B6884
:100C8400002B02DC0B6C002B18DDE66AB6B102F413
:100C94008052002392B22F682B600AB1626D10E07B
:100CA400216A28460123B047411C024609D12B681A
:100CB4003BB11D2B01D0162B46D12F600020BDE87F
:100CC400F081A3895B0705D56368D21A636B0BB106
:100CD400236CD21AE66A216A28460023B047461CD0
:100CE400A28905D12B681BB11D2B01D0162B19D15C
:100CF40000236360D1042369236004D5421C01D11D
:100D04002B6803B96065616B2F600029D6D004F1AC
:100D14004403994202D0284600F06CF90020606335
:100D2400BDE8F08142F04002A281BDE8F0810E6985
:100D3400002EC3D00B680E60C6EB030893070CBFEC
:100D44004B6900238B6012E0A38943F04003A38125
:100D54004FF0FF30BDE8F081A76A216A2846324689
:100D64004346B8470028EFDD0644C0EB0808B8F155
:100D7400000FF1DCA2E7000038B50B6905460C460C
:100D8400DBB118B183690BB900F074F80C4B9C42C9
:100D940001D16C6808E00B4B9C4201D1AC6803E0C4
:100DA400094B9C4208BFEC68B4F90C302BB12846BF
:100DB4002146BDE83840FFF75BBF002038BD00BFC7
:100DC400901A0008B01A0008D01A0008F8B50746AF
:100DD40000F1480494B1A5686668013E0CD4AB895F
:100DE400012B07D9B5F90E30013303D03846294613
:100DF400FFF7C2FF6835F0E72468EBE7F8BD0000B1
:100E0400002310B504460360436083608181436618
:100E1400C28103614361836119465C30082200F09A
:100E2400E1F8054B6362054BA362054BE362054B96
:100E34002462236310BD00BF491100086B11000830
:100E4400A3110008C711000870B54B1E68255D4347
:100E54000E4605F1740100F011F9044640B1002179
:100E640080E842000C30A06005F1680200F0BAF896
:100E7400204670BD836910B5044633BB8364C364E4
:100E84000365124B124A1B688262984204BF012315
:100E9400836100F01FF86060204600F01BF8A0603A
:100EA400204600F017F80421E06000226068FFF794
:100EB400A7FFA06809210122FFF7A2FFE068122121
:100EC4000222FFF79DFF0123A36110BD8C1A0008C5
:100ED400D10D0008F8B51B4B1E68B369074613B95A
:100EE4003046FFF7C7FF4836B4687368013B04D443
:100EF400B4F90C5075B16834F8E733682BB9384647
:100F04000421FFF7A1FF306008B13668ECE70C2339
:100F14003B60F8BD4FF6FF73E3810123A38165664F
:100F24002560A560656025616561A56104F15C00CB
:100F34002946082200F056F86563A563A564E564B4
:100F44002046F8BD8C1A0008F0B58B899E0791B035
:100F540005460C4626D4B1F90E10002909DAA389F6
:100F640013F0800F4FF0000714BF40264FF4806643
:100F74000DE001AA00F01CFC0028F0DB029F07F43E
:100F84007047B7F500514F424F414FF480662846F1
:100F9400314600F073F860B9A3899A051DD443F073
:100FA4000203A38104F147032360236101236361E6
:100FB40013E00B4BAB62A389206043F08003A38151
:100FC400206166614FB12846B4F90E1000F002FCAE
:100FD40018B1A38943F00103A38111B0F0BD00BF90
:100FE400D10D000802440346934202D003F8011BCA
:100FF400FAE7704730B500293CD051F8042C0B1F98
:101004001D49002AB8BF9B180A680C4612B95A60D9
:101014000B6030BD93420DD219685818904203D129
:101024005A581144426819605A60236030BD99428D
:1010340003D80A4651680029F9D1146815199D424C
:101044000AD11B682344D0188842136012D108685F
:10105400034413604B680CE002D90C23036030BDD9
:1010640018681C188C4203D10C6849682044186025
:101074005960536030BD00BF0801002070B5CD1C1D
:1010840025F0030508350C2D38BF0C25002D064628
:101094003FDB8D423DD3214B1C6818462146A1B14C
:1010A4000B685B1B0ED40B2B03D90B60CC18CD50F3
:1010B4001FE08C4202D1626802601AE04B686360F0
:1010C4000C4616E00C464968E9E7154C23681BB941
:1010D400304600F027F820602946304600F022F818
:1010E400431C014615D0C41C24F0030484420AD1D5
:1010F400256004F10B00231D20F00700C31A0BD058
:101104005A42E25070BD3046611A00F00BF80130CB
:10111400EED10C233360002070BD00BF0801002015
:101124000401002038B5064C002305460846236018
:10113400FFF7E0F9431C02D1236803B12B6038BDEB
:101144000C01002010B50C46B1F90E1000F0BEFBE6
:10115400002803DB636D0344636510BDA38923F496
:101164008053A38110BD2DE9F0411D468B89DB0519
:1011740007460C46164605D5B1F90E100022022387
:1011840000F038FBA389B4F90E1023F48053A38133
:10119400384632462B46BDE8F04100F0E7BA10B5B8
:1011A4000C46B1F90E1000F025FB431CA38903D1B2
:1011B40023F48053A38110BD43F48053A38160655D
:1011C40010BDB1F90E1000F0E3BA2DE9F0478D68B7
:1011D400AB4281460C4692461F4643D38B8913F497
:1011E400906F3DD026680969C1EB06086669022242
:1011F40006EB460696FBF2F608F101023A449642E3
:1012040038BF16465B050FD53146FFF737FF054655
:1012140098B12169424600F00EFBA38923F4906340
:1012240043F08003A38113E0324600F028FB054617
:1012340070B948462169FFF7DDFE0C23C9F8003078
:10124400A38943F04003A3814FF0FF30BDE8F0874A
:10125400256166614544C8EB06062560A6603D46E7
:10126400AF4200D23D462A462068514600F0ECFACF
:10127400A3685B1BA36023681D4425600020BDE8B0
:10128400F08700002DE9F0439DB0074603938B8956
:101294001C060D4616460CD50B6953B94021FFF7C1
:1012A400EDFE2860286110B90C233B60C8E04023A0
:1012B4006B610023099320238DF8293030238DF8A6
:1012C4002A3033461C4613F8012B1AB9B4EB06092D
:1012D4000FD002E0252AF5D1F8E7384629463246F0
:1012E4004B46FFF772FF013000F0A580099B4B4489
:1012F40009932378002B00F09E8000234FF0FF32E7
:1013040004930793059206938DF853301A9304F1CE
:1013140001094C464D4E21783046052200F07CFAF6
:1013240009F10109049B28B1861B0120B040034345
:101334000493EEE7D90644BF20228DF853201A0700
:1013440044BF2B228DF8532022782A2A02D0079BEF
:1013540021460EE0039A111D12680391002A01DB55
:10136400079204E0524243F00203079204930134CB
:101374000AE00C4601312278303A092A03D80A20BF
:1013840000FB0323F5E7079323782E2B1AD1637808
:101394002A2B0AD1039B1A1D1B680392002B04F10C
:1013A4000204B8BF4FF0FF330BE0611C00230C466E
:1013B40001312278303A092A03D80A2000FB03239A
:1013C400F5E70593224E21783046032200F024FAF3
:1013D40030B1861B049B4020B04003430493013486
:1013E40021781C488DF828100622661C00F014FA97
:1013F40088B1194B33B9039B073323F00703083330
:10140400039314E003AB0093384604A92A46134B14
:10141400AFF3008007E003AB0093384604A92A46E3
:101424000E4B00F08FF8B0F1FF3F804603D0099BCC
:101434004344099345E7AB895B0601D4099801E06D
:101444004FF0FF301DB0BDE8F08300BFF01A000874
:10145400F61A0008FA1A000800000000CF1100086C
:101464002DE9F84315461F468A680B69DDF820808C
:101474009A42A8BF13462B6091F8432006460C46B7
:101484000AB101332B602368990602D52B68023315
:101494002B60236813F006091DD094F843302268AA
:1014A400003318BF012392061FD5E1185A1C3020BF
:1014B40081F84300224494F8451082F84310023323
:1014C40013E03046394604F119020123C0470130C4
:1014D40007D009F10109E2682B68D31A9945F0DBBA
:1014E400DBE74FF0FF30BDE8F8833046394604F1BE
:1014F4004302C0470130F4D023682A68E16803F04E
:101504000603042B08BFC2EB01052369A2680CBFC4
:1015140025EAE57500259A42C4BFC3EB0203ED1822
:101524004FF00009A9450ADA3046394604F11A0297
:101534000123C0470130D4D009F10109F2E70020AA
:10154400BDE8F8832DE9FF470E7E0C9D6E2E804684
:101554000C4691469A4601F1430000F0A58011D84B
:10156400632E22D009D8002E00F0AF80582E40F010
:10157400BF8081F845607B4A4FE0642E1ED0692EFF
:101584001CD0B5E0732E00F0A48009D86F2E2BD0A8
:10159400702E40F0AD800B6843F020030B6038E000
:1015A400752E21D0782E34D0A2E02B681A1D1B682A
:1015B4002A6001F1420781F842309DE022682B68DD
:1015C40012F0800F03D01A1D2A601D6805E0510631
:1015D400F9D51A1D2A60B3F90050002D39DA2D23EC
:1015E4006D4284F8433034E022682B6812F0800F97
:1015F40003D01A1D2A601D6804E05206F9D51A1D8D
:101604002A601D88237E574A6F2B14BF0A230823A0
:101614001BE07823544A84F845302368296813F082
:10162400800F01F104062E6001D00D6802E05F0610
:10163400FBD50D88DE0744BF43F0200323601DB9AA
:10164400236823F0200323601023002184F843102F
:1016540001E0444A0A236668A660002E03DB216881
:1016640021F00401216005B96EB104F14201B5FB1A
:10167400F3F603FB16550F46555D01F8015935463F
:10168400002EF4D100E00746082B0AD12368DD07B9
:1016940007D5626823699A4203DC302307F8013CCA
:1016A400013FC01B20612CE009682B68626911F0BE
:1016B400800F04D0191D29601B681A6005E04906D3
:1016C400F8D5191D29601B681A8000232361074679
:1016D40017E02B681A1D2A601F683846FFF7C4F903
:1016E40063682061984288BF23612369636005E0D1
:1016F40004F1420784F8426001232361002384F843
:101704004330CDF800A04046214603AA4B46FFF7DC
:10171400A7FE013002D14FF0FF301FE0404649469A
:101724003A462369D0470130F5D023689B0705D496
:10173400E068039B9842B8BF18460FE00025E268B2
:10174400039BD31A9D42F3DA4046494604F1190239
:101754000123D0470130DED00135F0E704B0BDE805
:10176400F08700BF011B0008121B000838B5074CA6
:10177400054600202060084611461A46FEF70CFF75
:10178400431C02D1236803B12B6038BD0C01002037
:1017940038B5064C0023054608462360FEF7D4FE00
:1017A400431C02D1236803B12B6038BD0C01002017
:1017B40038B5074C00230546084611462360FEF75A
:1017C400CBFE431C02D1236803B12B6038BD00BF9C
:1017D4000C01002038B5064C00230546084623605A
:1017E400FEF7C2FE431C02D1236803B12B6038BD4F
:1017F4000C01002038B5074C05460020206008463F
:1018040011461A46FEF7B8FE431C02D1236803B101
:101814002B6038BD0C01002010B5C9B202449042BF
:10182400034606D01C788C4200F10100F7D118461B
:1018340010BD002010BD10B50023934203D0CC5C32
:10184400C4540133F9E710BD814270B501D30023BC
:101854000EE08C18A042FAD28518134613F1FF3318
:1018640005D3514266182944F65CCE54F6E770BDA0
:10187400934203D0CC5CC4540133F9E770BDF8B58E
:10188400064614460D4621B91146BDE8F840FFF757
:10189400F5BB1AB9FFF7AEFB2046F8BD00F028F8F7
:1018A400A0420ED230462146FFF7E8FB074650B16E
:1018B40029462246FFF7BFFF30462946FFF79AFB29
:1018C40001E02846F8BD3846F8BD000038B5074C9D
:1018D400054600202060084611461A46FEF754FECD
:1018E400431C02D1236803B12B6038BD0C010020D6
:1018F40051F8040C002802DA04390B58184404384F
:10190400704700002E2E2F73797374656D2F7372D8
:10191400632F73746D333266332D73746470657220
:101924006970682F73746D3332663330785F677013
:10193400696F2E63000000002E2E2F737973746577
:101944006D2F7372632F73746D333266332D73741A
:10195400647065726970682F73746D3332663330E6
:10196400785F7263632E630061626F727428292C3E
:101974002065786974696E672E2E2E002C2066759A
:101984006E6374696F6E3A200000000061737365C2
:101994007274696F6E2022257322206661696C65FA
:1019A400643A2066696C6520222573222C206C69B8
:1019B4006E65202564257325730A000061737365C1
:1019C40072745F706172616D2829206661696C654B
:1019D400643A2066696C6520222573222C206C6988
:1019E4006E652025640A00000A0000006D61696EBE
:1019F40028617267633D25642C20617267763D5BC4
:101A0400000000002C2000002225732200000000AA
:101A14005D293B0A0000000048656C6C6F20415250
:101A24004D20576F726C6421000000005374616E86
:101A340064617264206F7574707574206D6573735E
:101A44006167652E000000005374616E6461726406
:101A5400206572726F72206D6573736167652E0AFB
:101A64000000000053797374656D20636C6F636BC1
:101A74003A202575487A0A005365636F6E64202501
:101A8400750A000043000000100000200000000060
:101A94000000000000000000000000000000000042
:101AA4000000000000000000000000000000000032
:101AB4000000000000000000000000000000000022
:101AC4000000000000000000000000000000000012
:101AD4000000000000000000000000000000000002
:101AE400000000000000000000000000232D302B47
:101AF4002000686C4C00656667454647003031320B
:101B04003334353637383941424344454600303161
:0F1B1400323334353637383961626364656600C1
:101B240078563412800000200000000000A24A040D
:101B340000000000901A0008B01A0008D01A00082B
:101B44000000000000000000000000000000000091
:101B5400881A0008000000000000000000000000D7
:101B64000000000000000000000000000000000071
:101B74000000000000000000000000000000000061
:101B84000000000000000000000000000000000051
:081B9400100000203254769885
:040000050800018965
:00000001FF
